:020000040800F2
:10000000701000203D020008D53400089532000829
:10001000D1340008A5060008795E00080000000041
:10002000000000000000000000000000AD370008E4
:100030001F0800080000000021350008D53700081F
:10004000570200085702000857020008570200082C
:10005000570200085702000857020008570200081C
:10006000570200085702000857020008570200080C
:1000700057020008570200085702000857020008FC
:10008000570200085702000857020008000000004D
:1000900000000000000000000000000057020008FF
:1000A00057020008493A00085702000857020008A2
:1000B00057020008570200085702000857020008BC
:1000C00057020008570200085702000857020008AC
:1000D00057020008B5400008570200080000000061
:1000E00057020008570200085702000800000000ED
:1000F000000000000000000000000000570200089F
:1001000000000000570200085702000857020008CC
:1001100000000000000000000000000000000000DF
:10012000570200085702000857020008570200084B
:10013000570200080000000000000000000000005E
:100140000000000000000000000000001135000861
:10015000570200085702000857020008570200081B
:1001600057020008570200080000000000000000CD
:10017000000000000000000000000000000000007F
:10018000000000005702000800000000000000000E
:100190005702000800F002F800F040F80AA090E8CA
:1001A000000C82448344AAF10107DA4501D100F032
:1001B00035F8AFF2090EBAE80F0013F0010F18BFBF
:1001C000FB1A43F00103184714600000346000007C
:1001D000103A24BF78C878C1FAD8520724BF30C873
:1001E00030C144BF04680C60704700000023002445
:1001F00000250026103A28BF78C1FBD8520728BF37
:1002000030C148BF0B6070471FB505F0CFFF9DE8B8
:10021000030000F041F91FBD10B510BD00F0C0F99A
:100220001146FFF7F1FF05F041FE00F0DEF903B4DF
:10023000FFF7F2FF03BC00F00FFA00000948804707
:1002400009480047FEE7FEE7FEE7FEE7FEE7FEE7B8
:10025000FEE7FEE7FEE7FEE704480549054A064BD0
:1002600070470000A139000895010008700A0020BD
:1002700070100020700C0020700C002070B5064635
:1002800000F0EEF8056806F10B0020F00704B44218
:100290009CBF002070BD2B466A68BAB11068A042AE
:1002A00010D304F1080188423CBF5068586007D35E
:1002B0005168101941601168091B01605860146091
:1002C000101D70BD13465268002AE7D1214628460A
:1002D00000F0CEF80028DED170BD70B50446051FD1
:1002E00000F0BEF80068002C14BF446870BD002CFC
:1002F00018BFAC423CBF20466468F8D301680A18B6
:10030000AA4218BF456003D12A680546114401601E
:1003100028684119A1421CBF6C6070BD61686960AA
:1003200021680844286070BD032A40F2308010F034
:10033000030C00F0158011F8013BBCF1020F624480
:1003400098BF11F801CB00F8013B38BF11F8013B11
:10035000A2F1040298BF00F801CB38BF00F8013BBE
:1003600011F0030300F02580083AC0F0088051F82E
:10037000043B083A51F804CBA0E80810F5E7121D39
:100380005CBF51F8043B40F8043BAFF30080D20758
:1003900024BF11F8013B11F801CB48BF11F8012B24
:1003A00024BF00F8013B00F801CB48BF00F8012B47
:1003B000704710B5203AC0F00B80B1E81850203AD1
:1003C000A0E81850B1E81850A0E81850BFF4F5AFF5
:1003D0005FEA027C24BFB1E81850A0E8185044BF7F
:1003E00018C918C0BDE810405FEA827C24BF51F8EC
:1003F000043B40F8043B08BF7047D20728BF31F8E0
:10040000023B48BF11F8012B28BF20F8023B48BF30
:1004100000F8012B70474FF000020429C0F0128051
:1004200010F0030C00F07080CCF1040CBCF1020F52
:1004300018BF00F8012BA8BF20F8022BA1EB0C017C
:1004400000F062B85FEAC17C24BF00F8012B00F81D
:10045000012B48BF00F8012B704770477047704769
:1004600000487047140A0020704770477047704773
:1004700038B504460A4600206946AFF300800028DC
:1004800008BF38BD02460099204600F067F80120F9
:1004900038BD012000F07CB8F8B5AFF30080054608
:1004A00000200C46102000BF0646A819A0420DD916
:1004B000324669460020AFF30080070008BF00F015
:1004C00067F80098A04218BF0546C419FFF7C8FF97
:1004D00005600746F01D20F007004619284600F089
:1004E0000AF8B44208BFF8BDA21B31463868BDE81F
:1004F000F84000F033B800210160C0E901107047F6
:10050000102070474FF0000200B5134694469646FF
:10051000203922BFA0E80C50A0E80C50B1F1200116
:10052000BFF4F7AF090728BFA0E80C5048BF0CC0C4
:100530005DF804EB890028BF40F8042B08BF704722
:1005400048BF20F8022B11F0804F18BF00F8012B94
:1005500070470000004870470C0A002003464068BE
:100560008C46002818BF88423CBF03464068F8D339
:1005700018681844884207D00CF1030020F00700E7
:10058000001D411A521A0146081D0A60FFF7A5BE58
:1005900010B500F039F8BDE8104000F02FB87047F2
:1005A0007546FFF7D7FFAE4605006946534620F073
:1005B0000700854618B020B5FFF74EFEBDE8204085
:1005C0004FF000064FF000074FF000084FF0000B0F
:1005D00021F00701AC46ACE8C009ACE8C009ACE8C2
:1005E000C009ACE8C0098D46704710B50446AFF3AA
:1005F00000802046BDE81040FFF719BE002801D05A
:1006000000F02AB87047000010B5012805D000217D
:1006100003A000F027F8012010BD09A1F8E70000B1
:1006200053494752544D454D3A204F7574206F66DB
:100630002068656170206D656D6F72790000000043
:100640003A2048656170206D656D6F727920636F27
:10065000727275707465640001491820ABBEFEE7C4
:100660002600020070B505460C460A2000E06D1C0D
:1006700000F011F835B128780028F8D102E0641CA8
:1006800000F009F814B120780028F8D1BDE87040D6
:100690000A20AFF3008008B569468DF800000320FA
:1006A000ABBE08BD00BFFEE72DE9F0410646D6F817
:1006B0007403C469002794F84E00032802D004286C
:1006C0002DD109E0237B628B3046216A03F00DFDBA
:1006D000042084F84E0023E0217B304604F026FB02
:1006E0000746012F1AD1217B304604F0FEFA85B26D
:1006F000A06A401B0CD0608BA84209DAA06A401B9C
:10070000A062206A28442062032084F84E0005E09D
:10071000002084F84E00304603F0DAFE00E000BF0F
:1007200000BFBDE8F081F8B50546D5F87403C4698B
:10073000002694F84D00012802D0022843D119E088
:10074000208B616A814208D901200090637B228B53
:100750002846E16903F0DEFC08E001200090637B9D
:10076000A08C82B22846E16903F0D4FC022084F810
:100770004D0029E0617B284604F0D8FA0646012E98
:100780001BD1208B616A814208D9208B616A081ACB
:100790006062208BE1690844E06101E00020606252
:1007A000606A18B1012084F84D000BE0002084F845
:1007B0004D00284603F047FF04E0022E02D101203D
:1007C00084F84D0000E000BF00BFF8BD01460022E4
:1007D00005E0002301F55F7040F82230521C0F2A1B
:1007E000F7D3002204E0002301F58E708354521CDD
:1007F000B2F5007FF7D300200870487001208870A0
:100800000020C1F8B80301230B7640238B7100232D
:100810004B7681F81C33012381F81D3370477047F4
:1008200010B52A4800F0DCF929490860274800F093
:100830000DFA26490844441E204600F0D1F9244907
:100840000968401A401C23490860002022490860BA
:10085000022008611E48006888601E480068C86061
:100860001E491D4800F026FA08B100F03BF81C486C
:10087000006820F480601A4908600846006820F487
:100880000070086000BF0846006840F480500860AF
:100890000846006820F48050086000BF00BF08468A
:1008A000006840F4006008600846006820F40060BA
:1008B000086000BF0846006840F400700860084601
:1008C000006840F48060086010BD0000000002086D
:1008D000980000209C00002090090020A400002027
:1008E000003C024000BFFEE710B5002201B909E05C
:1008F000012901D10A0205E0022901D10A0201E021
:100900004FF44072114B1B6823F440730F4C23606B
:1009100023461B681343236023461B6823F0F80318
:10092000236023461B68F82494FAA4F4B4FA84F4F0
:1009300000FA04F444F002042343044C23602346E9
:100940001B6843F48033236010BD0000103C02405C
:100950001C48006800F40070B0B11A48006820F428
:1009600000701849086000BF0846006840F4006045
:1009700008600846006820F40060086000BF084670
:10098000006840F4007008600E48006800F4806061
:10099000B0B10C48006820F480600A49086000BFCC
:1009A0000846006840F4805008600846006820F45B
:1009B0008050086000BF0846006840F4806008600E
:1009C00070470000003C02400A4A126822F440725C
:1009D000084B1A601A46126842F004021A601A465E
:1009E00012684FF4803343EA00231A43014B1A6024
:1009F00070470000103C0240074A126822F440721F
:100A0000054B1A601A4612681A601A46126842F0BC
:100A100001021A6001707047103C024010B509498C
:100A2000096821F44071074C21602146096841F4AE
:100A3000407121602146096841F001012160026096
:100A4000436010BD103C0240084A126822F4407214
:100A5000064B1A601A46126842F480721A601A46EF
:100A6000126842F001021A6001807047103C024097
:100A7000084A126822F44072064B1A601A4612683D
:100A800042F400721A601A46126842F001021A60BB
:100A900001607047103C02402A480068C0F3001013
:100AA00040B12948C06940F010002749C8611020B2
:100AB0002449086023480068C0F3401040B1224830
:100AC000C06940F008002049C86120201D49086025
:100AD0001C480068C0F3801040B11B48C06940F05A
:100AE00004001949C861402016490860154800688B
:100AF000C0F3C01040B11448C06940F00200124970
:100B0000C86180200F4908600E480068C0F30020CB
:100B100048B10D48C06940F001000B49C8614FF46D
:100B200080700849086007480068C0F3400040B181
:100B30000548C06940F020000349C861022001490E
:100B4000086070470C3C0240EC09002070B5044678
:100B5000002500201749C86100F062FA054609E047
:100B6000601C38B124B100F05BFA401BA04201D9EF
:100B7000032070BD10480068C0F300400028EFD18A
:100B80000D48006800F0010010B101200A4908601A
:100B90000948006800F4F970B0F5F97F01D101202F
:100BA00000E0002018B1FFF777FF0120E1E7002007
:100BB000DFE70000EC0900200C3C024070B5044661
:100BC0000D46A12121742121617400216182A1823D
:100BD0000721E18207222946204603F067FD70BD08
:100BE00001460020144A914203D2B1F1006F00D3B4
:100BF00020E0124A914204D20F4A914201D30120CF
:100C000018E00F4A914204D20C4A914201D30220CB
:100C100010E00C4A914204D2094A914201D30320C8
:100C200008E0094A914204D2064A914201D30420C5
:100C300000E0052070470000004000080080000828
:100C400000C0000800000108000002080146002062
:100C500029B1012903D0022901D0032902D14FF47F
:100C6000804005E0042901D1880301E04FF4003001
:100C70007047014691F83500022803D0802048656E
:100C800001207047052081F835000868006820F0D1
:100C900001000A6810600020F3E731B5002400F07D
:100CA000BFF9044600BF00F0BBF9001B0099884261
:100CB000F9D338BD2DE9F04104460E460127002541
:100CC00000BF2548007E012802D10220BDE8F08146
:100CD00001202149087600BF4CF25030FFF736FF63
:100CE0000746002F31D1401E3060206801280FD107
:100CF000207C6168FFF768FE4CF25030FFF726FF5A
:100D000007461648006820F00400144908601AE0FD
:100D1000A56812E0217C2846FFF7E6FD4CF2503032
:100D2000FFF714FF07460D48006820F0FA000B4952
:100D300008600FB1356005E06D1CD4E9021008446D
:100D4000A842E7D800BFFFF703FE00BF002002491A
:100D5000087600BF3846B9E7EC090020103C024095
:100D60000348006840F000400149086000207047D7
:100D7000103C02402DE9F04106460F4614461D4640
:100D80004FF0010800BF1F48007E012802D1022059
:100D9000BDE8F08101201B49087600BF4CF25030BD
:100DA000FFF7D4FE8046B8F1000F23D126B9E1B297
:100DB0003846FFF721FE12E0012E04D1A1B23846D9
:100DC000FFF742FE0BE0022E04D121463846FFF722
:100DD0004FFE04E022462B463846FFF71FFE4CF23A
:100DE0005030FFF7B3FE80460748006820F001004E
:100DF0000549086000BF00200249087600BF404650
:100E0000C6E70000EC090020103C024007480068DB
:100E100000F0004030B1064804490C39086005482C
:100E2000086001E0012070470020FCE7103C024010
:100E300023016745AB89EFCDF8B503460A46002587
:100E4000002400200021CDE0012606FA01F51668F5
:100E500006EA0504AC4273D15668022E02D05668E9
:100E6000122E13D1CF0803F1200656F827004E07A3
:100E7000F70E0F26BE40B0434F07FF0E1669BE4067
:100E80003043CF0803F1200646F8270018684F00CA
:100E90000326BE40B043167906F003064F00BE405D
:100EA000304318605668012E08D05668022E05D0CF
:100EB0005668112E02D05668122E13D198684F0032
:100EC0000326BE40B0434F00D668BE403043986012
:100ED000586801268E40B0431679C6F300168E403E
:100EE00030435860D8684F000326BE40B0434F00DF
:100EF0009668BE403043D860566806F08056B6F11A
:100F0000805F6ED100BF00260096384E366846F4EA
:100F10008046364F3E603E46366806F48046009670
:100F200000BF00BF324E8F0856F827008E07370FDC
:100F30000F26BE40B0432F4EB34202D1002615E02B
:100F40004FE02D4EB34201D101260FE02B4EB342AC
:100F500001D102260AE02A4EB34201D1032605E060
:100F6000284EB34201D1042600E007268F073F0F29
:100F7000BE4030431E4E8F0846F82700224E306890
:100F8000A043566806F48036B6F5803F00D1204372
:100F90001D4E3060361D3068A043566806F400369A
:100FA000B6F5003F00D12043174E361D3060361D88
:100FB0003068A043566806F48016B6F5801F00D14D
:100FC0002043114E08363060361D3068A043566805
:100FD00006F40016B6F5001F00D120430A4E0C3669
:100FE0003060491C1029FFF42FAFF8BD443802408F
:100FF000083801400000024000040240000802409E
:10100000000C024000100240003C014042694A408E
:10101000426170470AB1816101E00B04836170474E
:101020000148006870470000D400002010B5044655
:10103000D4F8940203F016FE10BD10B50446D4F89F
:10104000940203F026FE10BD10B50446206804F09B
:101050001DFA10BD10B50446206804F01DFA10BD3D
:10106000024601EB810302F1380000EBC30090F867
:1010700024007047024601EB810302F1380000EBC7
:10108000C3004069704770B504460D46002600BF96
:1010900094F89002012801D1022070BD012084F84B
:1010A000900200BF2946206804F004FA00BF002027
:1010B00084F8900200BF3046EFE72DE9FE4F04466A
:1010C0000D4616461F46DDE90D9ADDF830804FF0DB
:1010D000000B00BF94F89002012802D10220BDE865
:1010E000FE8F012084F8900200BF05EB850104F11A
:1010F000380000F8317005EB850100EBC100A0F865
:1011000008A005EB850104F1380000EBC100457033
:1011100005EB850104F1380000EBC10080F8079071
:1011200006F07F0105EB850204F1380000EBC200F8
:101130008170C6F3C01105EB850204F1380000EBA5
:10114000C200C17005EB850104F1380000EBC1005D
:1011500080F804808DE800073B4632462946206827
:1011600004F04CFA834600BF002084F8900200BFD0
:101170005846B4E770472DE9F05F04460D46164621
:101180001F46DDE90BB9DDF834A0DDF8288005EB5A
:10119000850104F1380000EBC100C67005EB850144
:1011A00004F1380000EBC100C771B8F1000F08D19D
:1011B000032105EB850204F1380000EBC2008172C7
:1011C00007E0022105EB850204F1380000EBC200C4
:1011D000817237B1012F7DD0022F3DD0032F3AD13C
:1011E00082E0B8F1010F36D1AEBBB9F1000F07D1E3
:1011F000012105EB850204F1380000EBC2004176C5
:1012000005EB850104F1380000EBC100407E40B9D8
:10121000002105EB850204F1380000EBC200817269
:1012200007E0022105EB850204F1380000EBC20063
:10123000817205EB850104F1380000EBC10090F8E4
:101240002400022807D005EB850104F1380000EBEB
:10125000C10080F805A085E05EBB05EB850104F1C7
:10126000380000EBC100407E40B9002105EB85024B
:1012700004F1380000EBC200817207E0022105EBA7
:10128000850204F1380000EBC200817205EB850194
:1012900004F1380000EBC10090F82400022822D0AD
:1012A00005EB850104F1380000EBC10080F805A0D2
:1012B00019E005EB850104F1380000EBC100007E68
:1012C00048B9002105EB850204F1380000EBC200AB
:1012D000817208E03DE0022105EB850204F138004F
:1012E00000EBC20081723DE0CEB905EB850104F14F
:1012F000380000EBC100407E40B9002105EB8502BB
:1013000004F1380000EBC200817221E0022105EBFC
:10131000850204F1380000EBC200817218E005EB91
:10132000850104F1380000EBC100007E40B90021C6
:1013300005EB850204F1380000EBC200817207E082
:10134000022105EB850204F1380000EBC200817236
:1013500008E0002105EB850204F1380000EBC20033
:10136000817200BF00BF05EB850104F1380000EB7E
:10137000C100C0F80CB005EB850104F1380000EBAA
:10138000C100C0F81090002105EB850204F138007F
:1013900000EBC20080F8241005EB850204F1380050
:1013A00000EBC200416105EB850104F1380000EB60
:1013B000C1004570002105EB850204F1380000EB07
:1013C000C20080F82510227C05EB850C04F138035F
:1013D00003EBCC01206804F0DBF9BDE8F09F2DE9B8
:1013E000F0410446266800250027206804F05DF8D7
:1013F000012871D1206804F049FC08B9BDE8F081EA
:10140000206804F043FC00F40010B0F5001F03D185
:101410004FF4001021684861206804F037FC00F4A4
:101420008010B0F5801F03D14FF48010216848610F
:10143000206804F02BFC00F08060B0F1806F03D1D5
:101440004FF0806021684861206804F01FFC00F0C4
:101450000200022801D121684861206804F016FCCE
:1014600000F00050B0F1005F10D1D6F8400420F039
:101470002E00C6F840042046FFF7DFFD012120685A
:1014800004F0A8FB4FF0005021684861206804F088
:10149000FDFB00F08070B0F1807F02D1204601F0AA
:1014A0000BFE206804F0F2FB00F00800082805D1CC
:1014B000204600F0B9F8082021684861206804F04F
:1014C000E5FB00F00070B0F1007F23D1206804F04C
:1014D00059F90746002516E032E00120A8403840BF
:1014E00080B106F5A06000EB4510006800F40040F4
:1014F00020B1E9B2204601F0EDF803E0E9B2204660
:1015000001F062FB6D1CA068A842E6D84FF00070A5
:1015100021684861206804F0B9FB00F01000102831
:101520000ED12068806920F0100021688861204673
:1015300001F02CFE2068806940F01000216888616D
:1015400000BF5BE710B58AB0044614B901200AB0A9
:1015500010BD032084F89102204600F021F8206895
:1015600003F014FF282204F110016846FEF721FF62
:1015700094E80F0003F0B0FE0121206804F0B5FBF1
:10158000282204F110016846FEF713FF94E80F00CB
:1015900004F0AAFA012084F891020020D7E70000A5
:1015A00010B586B004462068B0F1A04F30D14FF49A
:1015B000C05001900220029000200390032004906C
:1015C0000A20059001A91348FFF736FC00BF124816
:1015D000006840F080001049086000BF00200090C3
:1015E0000D481030006840F480400B49103108600D
:1015F0000846006800F48040009000BF00BF00BFB4
:1016000000221146432000F0BBF8432000F0ABF865
:1016100006B010BD000002403438024010B5044648
:10162000206804F04AFB10BD10B50446D4F89402BB
:1016300003F085FB10BD10B5044600BF94F890027E
:10164000012801D1022010BD012084F8900200BFC2
:10165000206803F0E5FE0121206803F0BFFE00BF13
:10166000002084F8900200BF00BFECE710B50446EC
:1016700000BF94F89002012801D1022010BD012082
:1016800084F8900200BF206804F047FB00BF0020F0
:1016900084F8900200BF00BFF0E700000248006835
:1016A000401C014908607047D400002010B50D4867
:1016B000006840F400700B4908600846006840F478
:1016C000806008600846006840F48070086003206D
:1016D00000F094F8002000F007F800F019F800205E
:1016E00010BD0000003C024070B504460748006889
:1016F0004FF47A71B0FBF1F5284600F00CFC0022A3
:101700002146501E00F03CF8002070BDD0000020A3
:1017100010B5032000F072F8002211466FF00B00A4
:1017200000F02EF8002211466FF00A0000F028F8B1
:10173000002211466FF0090000F022F80022114645
:10174000501F00F01DF800221146101F00F018F87D
:1017500000221146901E00F013F800221146501E80
:1017600000F00EF810BD00BF00F01F0201219140F3
:101770004209920002F1E022C2F8001100BF704756
:101780002DE9F05F80460D461646002701F0A4FEC5
:10179000074639462A46334601F00700C0F1070ADA
:1017A000BAF1040F02D94FF0040A01E0C0F1070AB0
:1017B000D14600F1040ABAF1070F02D24FF0000A35
:1017C00001E0A0F1030AD4464FF0010A0AFA09FA2F
:1017D000AAF1010A0AEA020A0AFA0CFA4FF0010B0E
:1017E0000BFA0CFBABF1010B0BEA030B4AEA0B04FF
:1017F0002146404601F078FEBDE8F09F00BF00F0B2
:101800000702064B19684FF6FF031940044B0B43C0
:1018100043EA0221014B196000BF70470CED00E064
:101820000000FA0500BF00BF00BF00BF00BFBFF34C
:101830004F8F00BF00BF00BF0948006800F4E060A0
:1018400008490843001D0649086000BF00BF00BFEB
:10185000BFF34F8F00BF00BF00BF00BF00BFFDE759
:101860000CED00E00000FA0570B504460D460026B8
:101870006D48006800F00F00A84209D26A490D7057
:101880000846006800F00F00A84201D0012070BD9A
:10189000207800F00200022807D16448006820F098
:1018A000F000A168084361490860207800F0010059
:1018B000002877D06068012807D15C4808380068A4
:1018C000C0F34040B8B90120E1E76068022802D0C7
:1018D0006068032807D1554808380068C0F34060A5
:1018E00048B90120D3E7514808380068C0F34000E8
:1018F00008B90120CBE74D48006820F0030061687B
:1019000008434A490860FFF78BFB064660680128D8
:1019100010D108E0FFF784FB801B41F28831884238
:1019200001D90320B3E74148006800F00C00042807
:10193000F0D137E06068022810D108E0FFF770FBB3
:10194000801B41F28831884201D903209FE7374844
:10195000006800F00C000828F0D123E0606803283C
:1019600010D108E0FFF75CFB801B41F28831884210
:1019700001D903208BE72D48006800F00C000C28EB
:10198000F0D10FE008E0FFF74BFB801B41F28831FC
:10199000884201D903207AE72448006800F00C004F
:1019A0000028F0D12048006800F00F00A84209D9B3
:1019B0001D490D700846006800F00F00A84201D0D4
:1019C000012064E7207800F00400042807D11748BC
:1019D000006820F4E050E16808431449086020786A
:1019E00000F00800082808D11048006820F4604082
:1019F000216940EAC1000D49086000F04FF80B4929
:101A0000096801F0F001F02292FAA2F2B2FA82F231
:101A1000D140074A515CC840064908600020FFF7E2
:101A200063FE002033E70000003C0240083802401B
:101A3000C6610008D000002001480068704700001F
:101A4000D000002000B5FFF7F7FF0749096801F44F
:101A5000E0514FF4E05292FAA2F2B2FA82F2D1408F
:101A6000024A515CC84000BD08380240C661000807
:101A700000B5FFF7E1FF0749096801F460414FF441
:101A8000604292FAA2F2B2FA82F2D140024A515C6A
:101A9000C84000BD08380240C661000870B500218A
:101AA000002200230020274C246804F00C0424B1F9
:101AB000042C04D0082C41D103E0234840E0234803
:101AC0003EE0204C241F246804F03F011D4C241FDD
:101AD000246804F4800484B11C4CB4FBF1F5194C67
:101AE000241F246847F6C076344096FAA6F6B6FA64
:101AF00086F6F44005FB04F20FE0134CB4FBF1F55D
:101B0000104C241F246847F6C076344096FAA6F697
:101B1000B6FA86F6F44005FB04F20A4C241F24684A
:101B200004F440344FF4403595FAA5F5B5FA85F53F
:101B3000EC40641C6300B2FBF3F001E0024800BF1C
:101B400000BF70BD083802400024F40000127A0083
:101B500038B504460025207800F00100002848D060
:101B6000DE48006800F00C0004280DD0DB48006857
:101B700000F00C00082811D1D848001F006800F4BC
:101B80008000B0F5800F09D1D44808380068C0F350
:101B9000404070B3606860BB012038BD2079CF49F8
:101BA000891F0870606890B1FFF73AFA054606E0B1
:101BB000FFF736FA401B642801D90320EDE7C74838
:101BC00008380068C0F340400028F1D011E0FFF76A
:101BD00027FA054606E0FFF723FA401B642801D9DF
:101BE0000320DAE7BD4808380068C0F34040002809
:101BF000F1D1207800F00200022869D1B7480068CE
:101C000000F00C0058B1B548006800F00C0008283E
:101C100021D1B248001F006800F48000D8B9AF4855
:101C200008380068C0F3400020B1E068012801D006
:101C30000120B2E7A9480838006820F0F800F8222F
:101C400092FAA2F2B2FA82F2216991400843A349C2
:101C5000083908603CE0E06828B30120A04908602A
:101C6000FFF7DEF9054606E0FFF7DAF9401B022828
:101C700001D9032091E7994808380068C0F3400073
:101C80000028F1D095480838006820F0F800F822C4
:101C900092FAA2F2B2FA82F22169914008438F4986
:101CA0000839086014E000208D490860FFF7B8F992
:101CB000054606E0FFF7B4F9401B022801D90320CE
:101CC0006BE7864808380068C0F340000028F1D16F
:101CD000207800F0080008282CD16069A8B1012004
:101CE00080490860FFF79CF9054606E0FFF798F980
:101CF000401B022801D903204FE778486C30006868
:101D0000C0F340000028F1D014E0002075490860BD
:101D1000FFF786F9054606E0FFF782F9401B022827
:101D200001D9032039E76D486C300068C0F34000EA
:101D30000028F1D1207800F00400042857D100BF1A
:101D40000020009065483830006840F080506349BA
:101D5000383108600846006800F08050009000BFED
:101D600000BF6148006840F480705F490860FFF779
:101D700057F9054606E0FFF753F9401B022801D941
:101D800003200AE75848006800F480700028F2D069
:101D9000207A524968310870A068A0B1FFF740F975
:101DA000054608E0FFF73CF9401B41F288318842C4
:101DB00001D90320F1E6494868300068C0F34000CB
:101DC0000028EFD013E0FFF72BF9054608E0FFF7F6
:101DD00027F9401B41F28831884201D90320DCE613
:101DE0003E4868300068C0F340000028EFD1A06989
:101DF000F0B33A48006800F00C00082869D0A069E8
:101E0000022850D1002036490866FFF709F9054637
:101E100006E0FFF705F9401B022801D90320BCE6C4
:101E20002E4808380068C0F340600028F1D1D4E99A
:101E30000701084347F6C07292FAA2F2B2FA82F2A0
:101E4000616A914008430122A16AC2EB51014FF43B
:101E5000403292FAA2F2B2FA82F2914008434FF075
:101E6000706292FAA2F2B2FA82F2E16A914000E064
:101E700031E008431949091F086001201849086624
:101E8000FFF7CEF8054606E0FFF7CAF8401B022828
:101E900001D9032081E6114808380068C0F340608A
:101EA0000028F1D017E000200D490866FFF7B8F8C8
:101EB000054606E0FFF7B4F8401B022801D90320CD
:101EC0006BE6064808380068C0F340600028F1D18E
:101ED00001E0012061E600205FE6000008380240D2
:101EE00000004742800E474200700040042808D19D
:101EF0004FF0E021096941F004014FF0E022116147
:101F000007E04FF0E021096921F004014FF0E022E1
:101F100011617047704770B504462546681EB0F1E0
:101F2000807F01D301200FE0681E4FF0E02148615F
:101F30000F214FF0FF3001F0D7FA00204FF0E021E1
:101F4000886107200861002070BD10B5FFF7E2FF2F
:101F500010BD70477047024600BF92F83800012854
:101F600001D102207047012082F8380000BF022012
:101F700082F839001068406820F0700013685860DB
:101F8000106840680B6818431368586010688068D0
:101F900020F0800013689860106880684B681843D0
:101FA00013689860012082F8390000BF002082F891
:101FB000380000BF00BFD5E710B504460CB90120BA
:101FC00010BD94F8390028B9002084F83800204664
:101FD00000F00CF8022084F83900211D206801F07F
:101FE0003BFD012084F839000020E9E738B50446BC
:101FF0000E492068884217D100BF002000900C488D
:10200000006840F001000A4908600846006800F0D6
:102010000100009000BF00BF002211461920FFF709
:10202000AFFB1920FFF79FFB38BD00000000014007
:102030004438024001460868C06840F001000A6860
:10204000D0600868006840F001000A681060002055
:1020500070472DE9F04104460D46002600BF94F874
:102060003800012802D10220BDE8F081012084F867
:10207000380000BF022084F839002068866826F006
:10208000770626F47F4620688660286850283BD073
:102090000CDC202860D004DC002853D0102865D147
:1020A00055E030285DD0402860D141E0602835D02F
:1020B00070280DD0B0F5805F03D0B0F5005F55D12A
:1020C00015E02068806820F00700216888604EE0F5
:1020D000D5E902136A68206801F016FD2068866859
:1020E00026F0770646F07706206886603FE0D5E95F
:1020F00002136A68206801F007FD2068806840F4D8
:1021000080402168886032E0EA686968206801F0F0
:1021100011FD5021206801F003FD28E0EA6869689C
:10212000206801F01CFD6021206801F0F9FC1EE030
:10213000EA686968206801F0FDFC4021206801F030
:10214000EFFC14E00021206801F0EAFC0FE0102110
:10215000206801F0E5FC0AE02021206801F0E0FCA5
:1021600005E03021206801F0DBFC00E000BF00BF8B
:10217000012084F8390000BF002084F8380000BF37
:1021800000BF71E7704710B5044620680069C0F3CE
:102190004000D8B12068C068C0F34000B0B16FF013
:1021A000020021680861012020762068806900F023
:1021B000030018B12046FFF7E5FF05E0204600F0D8
:1021C000ADF8204600F0ABF80020207620680069CA
:1021D000C0F38000D8B12068C068C0F38000B0B1FF
:1021E0006FF0040021680861022020762068806971
:1021F00000F4407018B12046FFF7C4FF05E0204608
:1022000000F08CF8204600F08AF800202076206844
:102210000069C0F3C000D8B12068C068C0F3C00036
:10222000B0B16FF0080021680861042020762068B2
:10223000C06900F0030018B12046FFF7A3FF05E0D6
:10224000204600F06BF8204600F069F80020207668
:1022500020680069C0F30010D8B12068C068C0F3DE
:102260000010B0B16FF010002168086108202076DE
:102270002068C06900F4407018B12046FFF782FF63
:1022800005E0204600F04AF8204600F048F800201B
:1022900020762068006900F0010058B12068C0680D
:1022A00000F0010030B16FF00100216808612046A4
:1022B00000F036F820680069C0F3C01058B12068FB
:1022C000C068C0F3C01030B16FF0800021680861B1
:1022D0002046FFF73EFE20680069C0F3801058B129
:1022E0002068C068C0F3801030B16FF040002168F2
:1022F0000861204600F015F820680069C0F340101E
:1023000058B12068C068C0F3401030B16FF02000B1
:10231000216808612046FFF71DFE10BD7047704719
:1023200070477047704700002DE9F0470446206869
:1023300005682068C668206847694FF00008C146F4
:1023400005F00F08B8F1000F0AD105F0200038B1F0
:1023500006F0200020B1204601F041FCBDE8F087E6
:10236000B8F1000F6DD007F0010018B906F49070B5
:10237000002866D005F0010030B106F4807018B175
:10238000E06B40F00100E06305F0040030B107F0BD
:10239000010018B1E06B40F00200E06305F00200BC
:1023A00030B107F0010018B1E06B40F00400E063C9
:1023B00005F0080030B107F0010018B1E06B40F003
:1023C0000800E063E06B68B305F0200028B106F078
:1023D000200010B1204601F002FC20684069C0F3E3
:1023E0008019E06B00F0080010B9B9F1000F22D09D
:1023F000204601F0D4FB2068406900F04000B0B1F5
:102400002068406920F0400021684861606B50B14D
:102410001748616B0865606BFEF72BFC10B1606BB1
:10242000016D88470CE02046FFF77CFF08E020465E
:10243000FFF778FF04E02046FFF774FF0020E06319
:102440008CE705F0800030B106F0800018B120461E
:1024500001F0C6FD82E705F0400030B106F0400013
:1024600018B1204601F0ABFB78E700BF76E700002B
:102470008B3B000810B504460CB9012010BDA069C3
:1024800000B100E000BF94F8390028B9002084F8BA
:102490003800204600F028F8242084F8390020680D
:1024A000C06820F400502168C860204601F0E4FBB9
:1024B0002068006920F49040216808612068406924
:1024C00020F02A00216848612068C06840F400506C
:1024D0002168C8600020E063202084F8390084F877
:1024E0003A000020CAE7000010B586B0044616493D
:1024F0002068884226D100BF002000901348006861
:1025000040F01000114908600846006800F0100013
:10251000009000BF00BF4FF4C06001900220029005
:1025200001200390032004900720059001A908488A
:10253000FEF782FC002211462520FFF721F9252015
:10254000FFF711F906B010BD0010014044380240F9
:102550000000024010B5034693F83900202829D125
:1025600001B10AB9012010BD00BF93F8380001285D
:1025700001D10220F7E7012083F8380000BF9962FB
:102580009A85DA850020D863222083F83A0000BFBC
:10259000002083F8380000BF1868406940F001004F
:1025A0001C6860611868C06840F490701C68E06046
:1025B0000020D8E70220D6E770B5054600240C4875
:1025C0000068401C0A4908600846016809488142C1
:1025D00002D3C8380649086000BF054801220168D7
:1025E0000548FFF7B7FF0446002CF6D170BD000088
:1025F0008000002065090020380700202DE9F843FD
:1026000004460D4616461F464FF0000994F839005F
:1026100020285CD105B116B90120BDE8F88300BFC0
:1026200094F83800012801D10220F6E7012084F84F
:10263000380000BF0020E063212084F83900FEF755
:10264000EFFC8146A684E6842BE0E08C401EE0840B
:10265000A068B0F5805F16D14B460022802120464D
:10266000009701F0F1FC08B10320D6E7A846B8F8BE
:102670000000C0F3080021684860206908B9AD1C5B
:102680000FE06D1C0DE04B46002280212046009794
:1026900001F0DAFC08B10320BFE715F8010B21684F
:1026A0004860E08C0028D0D14B46002240212046D3
:1026B000009701F0C9FC08B10320AEE7202084F8A0
:1026C000390000BF002084F8380000BFA5E70220D1
:1026D000A3E770472DE9F04106460C463568002710
:1026E00005F5A06000EB4410806800F0040090B194
:1026F000042105F5A06000EB4410816005F5A060A1
:1027000000EB4410C06840F0020105F5A06000EB4A
:102710004410C16069E005F5A06000EB44108068DA
:1027200000F0200030B1202105F5A06000EB44103E
:1027300081605AE005F5A06000EB4410806800F06D
:10274000080028B305F5A06000EB4410C06840F015
:10275000020105F5A06000EB4410C160052104EB07
:10276000840206F1380000EBC20080F82510102129
:1027700005F5A06000EB44108160082105F5A0601C
:1027800000EB441081602146306802F093FE2CE09B
:1027900005F5A06000EB4410806800F4806020B371
:1027A00005F5A06000EB4410C06840F0020105F59B
:1027B000A06000EB4410C1602146306802F07AFE50
:1027C000102105F5A06000EB44108160082104EBA6
:1027D000840206F1380000EBC20080F82510C90120
:1027E00005F5A06000EB4410816005F5A06000EBEA
:1027F0004410806800F40070B8B105F5A06000EBEB
:102800004410C06840F0020105F5A06000EB4410E0
:10281000C1602146306802F04DFE4FF4007105F5AD
:10282000A06000EB44108160CCE105F5A06000EBF6
:102830004410806800F0010000287DD03069A8B104
:1028400004EB840106F1380000EBC100016905F5D5
:10285000A06000EB44100069C0F31200091A04EBF9
:10286000840206F1380000EBC2004161012104EB53
:10287000840206F1380000EBC20080F82510002128
:1028800004EB840206F1380000EBC2000162012172
:1028900005F5A06000EB4410816004EB840106F1B3
:1028A000380000EBC100C07940B104EB840106F1AF
:1028B000380000EBC100C079022816D105F5A060F0
:1028C00000EB4410C06840F0020105F5A06000EB89
:1028D0004410C1602146306802F0ECFD102105F57E
:1028E000A06000EB441081602BE004EB840106F152
:1028F000380000EBC100C079032822D105F5A060A3
:1029000000EB4410006840F0005105F5A06000EBBA
:1029100044100160012104EB840206F1380000EB51
:10292000C20080F8241004EB840106F1380000EBAB
:10293000C10090F8242000E014E021463046FEF764
:1029400019FC04EB840106F1380000EBC100007EA5
:1029500080F0010104EB840206F1380000EBC200B4
:1029600001762FE105F5A06000EB4410806800F0CF
:102970000200002871D005F5A06000EB4410C0688B
:1029800020F0020105F5A06000EB4410C16004EBEB
:10299000840106F1380000EBC10090F82500012801
:1029A00009D1012104EB840206F1380000EBC200DA
:1029B00080F8241069E004EB840106F1380000EB94
:1029C000C10090F82500052809D1052104EB8402F7
:1029D00006F1380000EBC20080F8241055E004EB4B
:1029E000840106F1380000EBC10090F825000628AC
:1029F00009D004EB840106F1380000EBC10090F827
:102A00002500082841D104EB840106F1380000EBD1
:102A1000C10004EB8401026A06F1380000EBC1003A
:102A2000006A401C04EB840306F1380101EBC3018A
:102A30000862032A12D9002104EB840206F138004F
:102A400000EBC2000162042104EB840206F13800AD
:102A500000EBC20080F8241009E029E0022104EB19
:102A6000840206F1380000EBC20080F8241005F55E
:102A7000A06000EB4410076827F0804747F000474C
:102A800005F5A06000EB44100760022105F5A06089
:102A900000EB4410816004EB840106F1380000EB88
:102AA000C10090F8242021463046FEF763FB89E000
:102AB00005F5A06000EB4410806800F0800070B362
:102AC00005F5A06000EB4410C06840F0020105F578
:102AD000A06000EB4410C16004EB840106F13800F3
:102AE00000EBC100006A401C04EB840206F13801CF
:102AF00001EBC2010862062104EB840206F13800F2
:102B000000EBC20080F825102146306802F0D2FCAC
:102B1000802105F5A06000EB4410816052E0FFE7E2
:102B200005F5A06000EB4410806800F01000E0B3F1
:102B300004EB840106F1380000EBC100C0790328E2
:102B400010D105F5A06000EB4410C06840F0020110
:102B500005F5A06000EB4410C1602146306802F02A
:102B6000A9FC1EE004EB840106F1380000EBC10073
:102B7000C07940B104EB840106F1380000EBC100DC
:102B8000C07902280DD105F5A06000EB441007685C
:102B900027F0804747F0004705F5A06000EB4410A0
:102BA0000760032104EB840200E00BE006F138002B
:102BB00000EBC20080F82510102105F5A06000EBA5
:102BC00044108160BDE8F0812DE9F04105460C46D6
:102BD0002E68002706F5A06000EB4410806800F026
:102BE000040090B1042106F5A06000EB4410816060
:102BF00006F5A06000EB4410C06840F0020106F545
:102C0000A06000EB4410C16054E206F5A06000EB48
:102C10004410806800F0200088B3202106F5A060F1
:102C200000EB4410816004EB840105F1380000EBF7
:102C3000C10040790128E7D1042104EB840205F1A9
:102C4000380000EBC20080F8251006F5A06000EB0C
:102C50004410C06840F0020106F5A06000EB44108B
:102C6000C1602146286802F025FC022104EB8402A1
:102C700005F1380000EBC20080F824101AE2FFE7EB
:102C800006F5A06000EB4410806800F0400038B307
:102C9000042104EB840205F1380000EBC20080F847
:102CA0002510002104EB840205F1380000EBC2007E
:102CB000016206F5A06000EB4410C06840F002011C
:102CC00006F5A06000EB4410C1602146286802F0C0
:102CD000F1FB402106F5A06000EB44108160E9E1C2
:102CE00006F5A06000EB4410806800F40070B8B1F5
:102CF00006F5A06000EB4410C06840F0020106F544
:102D0000A06000EB4410C1602146286802F0D2FBAD
:102D10004FF4007106F5A06000EB44108160C9E13A
:102D200006F5A06000EB4410806800F0010030B3AD
:102D3000002104EB840205F1380000EBC2000162BF
:102D400006F5A06000EB4410C06840F0020106F5F3
:102D5000A06000EB4410C1602146286802F0AAFB85
:102D6000012106F5A06000EB4410816004EB8402B1
:102D700005F1380000EBC20080F825109AE106F555
:102D8000A06000EB4410806800F00800F8B1082152
:102D900006F5A06000EB4410816006F5A06000EB32
:102DA0004410C06840F0020106F5A06000EB44103A
:102DB000C1602146286802F07DFB052104EB8402F6
:102DC00005F1380000EBC20080F8251072E106F52D
:102DD000A06000EB4410806800F0100038B30021C0
:102DE00004EB840205F1380000EBC200016206F535
:102DF000A06000EB4410C06840F0020106F5A0603E
:102E000000EB4410C1602146286802F053FB032107
:102E100004EB840205F1380000EBC20080F82510B5
:102E2000102106F5A06000EB4410816042E106F538
:102E3000A06000EB4410806800F08000F8B106F557
:102E4000A06000EB4410C06840F0020106F5A060ED
:102E500000EB4410C1602146286802F02BFB0621DC
:102E600004EB840205F1380000EBC20080F8251065
:102E7000802106F5A06000EB441081601AE106F5A0
:102E8000A06000EB4410806800F4806028B306F571
:102E9000A06000EB4410C06840F0020106F5A0609D
:102EA00000EB4410C1602146286802F003FB1021AA
:102EB00006F5A06000EB44108160890106F5A06072
:102EC00000EB44108160082104EB840205F1380016
:102ED00000EBC20080F82510ECE006F5A06000EBE6
:102EE0004410806800F0020000289FD006F5A06022
:102EF00000EB4410C06820F0020106F5A06000EB72
:102F00004410C16004EB840105F1380000EBC100FE
:102F100090F82500012822D1012104EB840205F15B
:102F2000380000EBC20080F8241004EB840105F1A6
:102F3000380000EBC100C07902280FD104EB8401F6
:102F400005F1380000EBC100407E80F0010104EB88
:102F5000840205F1380000EBC200417698E004EBF2
:102F6000840105F1380000EBC10090F8250003282A
:102F700009D1022104EB840205F1380000EBC20004
:102F800080F8241084E004EB840105F1380000EBA4
:102F9000C10090F82500042811D1022104EB84021D
:102FA00005F1380000EBC20080F82410002104EB8A
:102FB000840205F1380000EBC200417168E004EBC7
:102FC000840105F1380000EBC10090F825000528C8
:102FD00009D1052104EB840205F1380000EBC200A1
:102FE00080F8241054E004EB840105F1380000EB74
:102FF000C10090F82500062809D004EB840105F1F2
:10300000380000EBC10090F82500082840D104EBFF
:10301000840105F1380000EBC10004EB8401026A71
:1030200005F1380000EBC100006A401C04EB84038A
:1030300005F1380101EBC3010862032A11D900210F
:1030400004EB840205F1380000EBC20001620421A8
:1030500004EB840205F1380000EBC20080F8241074
:1030600008E0022104EB840205F1380000EBC20005
:1030700080F8241006F5A06000EB4410076827F0E4
:10308000804747F0004706F5A06000EB441007605A
:10309000022106F5A06000EB4410816004EB84017E
:1030A00005F1380000EBC10090F8242021462846A5
:1030B000FEF760F8BDE8F0817CB504462568D5F8D8
:1030C00040040190D5F840040090009820F02E00B4
:1030D0000090019800F00200022810D1019800F041
:1030E000010040B12068806920F0005021688861AB
:1030F0002046FDF79BFF009840F0020000900198E9
:1031000000F00800082833D1009840F00800009033
:10311000019800F0040004281ED1A06902280FD1F4
:10312000019800F4C020B0F5802F04D1022120685E
:1031300002F050FD0CE00121206802F04BFD07E099
:10314000E068032804D14EF6602140F2044041516A
:103150002046FDF76BFF0BE0D5F8400420F02E0071
:10316000C5F840042068806940F0005021688861FB
:10317000019800F02000202803D1009840F02000A2
:1031800000900098C5F840047CBD00002DE9F04790
:1031900005462F680024A046A1462868D0F8208064
:1031A00008F00F04C8F3434AC8F30A16BAF1020F35
:1031B00009D0BAF1030F66D0BAF1050F61D0BAF1A8
:1031C000070F5FD160E0002E5AD004EB840105F1B7
:1031D000380000EBC100C068E8B3B2B204EB840C65
:1031E00005F1380303EBCC03D968286802F054FDDD
:1031F00004EB840105F1380000EBC100C0688119BF
:1032000004EB840205F1380000EBC200C16004EB5E
:10321000840105F1380000EBC1004069811904EB1D
:10322000840205F1380000EBC200416107F5A0609F
:1032300000EB441000691649084060B107F5A06032
:1032400000EB4410D0F8009029F0804949F0004983
:1032500007F5A06000E013E000EB4410C0F8009018
:1032600004EB840105F1380000EBC100007E80F022
:10327000010104EB840205F1380000EBC200017685
:1032800003E002E000BF00BF00BF00BFBDE8F08761
:103290000000F81F00BFFEE700B587B000BF0020A8
:1032A00001904C48006840F004004A490860084614
:1032B000006800F00400019000BF00BF00BF0020C4
:1032C00001900846006840F08000086008460068E9
:1032D00000F08000019000BF00BF00BF00200190FF
:1032E0000846006840F0010008600846006800F0E9
:1032F0000100019000BF00BF00BF00200190084600
:10330000006840F0020008600846006800F0020013
:10331000019000BF00BF00BF002001900846006878
:1033200040F0080008600846006800F008000190BE
:1033300000BF00BF4FF6FF700290032003900020F3
:10334000049002A92448FDF777FD48F2DF100290AF
:10335000032003900020049002A92048FDF76CFD93
:10336000202002900120039004900020059002A9E3
:103370001A48FDF761FD4FF480500290002005903F
:1033800001200490039002A91548FDF755FD4EF267
:10339000FF700290032003900020049002A91048BF
:1033A000FDF74AFD042002900320039000200490C2
:1033B00002A90C48FDF740FD002220210748FDF737
:1033C00029FE00224FF480510548FDF723FE07B087
:1033D00000BD0000303802400008024000000240FA
:1033E00000040240000C024000B587B0164817499F
:1033F00008600020486000211448816049F640417F
:10340000C1604FF40071016100214161FEF7D4FDFC
:1034100008B1FDF767FA4FF48050039003A90B48F9
:10342000FEF717FE08B1FDF75DFA0020019002904B
:1034300001A90648FEF78FFD08B1FDF753FA0348CE
:10344000FEF7F8FD07B000BD00000140A409002010
:1034500010B50D480D4908604FF4E1304860002177
:103460000A488160C16001610C21416100218161D4
:10347000C161FEF7FFFF08B1FDF734FA04480549C2
:103480004860086010BD00000010014038070020AF
:103490009D0800208000002010B501220549064843
:1034A00001F0BDFB0549044801F0A7FE024801F008
:1034B000ECFE10BDA152000870030020B0000020F7
:1034C00010B5024801F0C3FD10BD000070030020DC
:1034D00000BFFEE77047000002480068C0F302200A
:1034E000704700000CED00E010B5002807DA0A076D
:1034F000140E054A00F00F031B1FD45403E00A0703
:10350000130E024A135410BD18ED00E000E400E071
:1035100010B50248FDF763FF10BD0000D800002081
:10352000704700002DE9F0410027002405E0934892
:10353000005D3844C7B2601CC4B290484078C01CDB
:10354000A042F4DC0FB1BDE8F0818C48C0788C4912
:10355000096888427CD189488078FA2803D1874855
:103560008078FB2874D0854880781F281FD006DC1F
:103570000B2809D00C283AD00E286BD147E0FC2844
:1035800025D0FE2866D152E07C48407802280DD133
:103590007C484078C21C7B497B48FCF7C5FE7848D4
:1035A00000787949C87079480078487456E07348C3
:1035B000407802280AD176484078C21C7449724883
:1035C000FCF7B2FE6E4800786F49C87046E06B4861
:1035D000407802280AD16F484078C21C6D496A4879
:1035E000FCF7A2FE664800786749C87036E0634879
:1035F000407802280AD168484078C21C664962486F
:10360000FCF792FE5E4800785F49C87026E01620FD
:103610005D490870062048700E2088705848007870
:10362000C8700020087148718871C87116E01620B2
:103630005549087012204870FE2088705048007864
:10364000C870102255495048001DFCF76DFE05E07A
:1036500026E0FFE700204C49487000BF00BF4A4801
:10366000407800281BDD4848C0780028FADD46482D
:103670004078801CC5B20026002405E04248005D69
:103680003044C6B2601CC4B2AC42F7DB70423E4963
:1036900048554FF6FF736A1C4148FEF7AFFF6BE0D9
:1036A00036488078FB282AD134484078022863D1F4
:1036B00016203549087004204870FB2088700020CF
:1036C000C870384800680871002048710846407882
:1036D000801CC5B20026002405E02B48005D304464
:1036E000C6B2601CC4B2AC42F7DB704226494855F2
:1036F0004FF6FF736A1C2A48FEF780FF3CE01F4824
:103700008078FA2838D1FDF781FBFDF789F8254844
:1037100025490860194890F803C06246002308460E
:1037200001681846FDF726FBFDF71AFB162016491F
:10373000087004204870FA2088700020C87019486A
:10374000006808710020487108464078801CC5B2A6
:103750000026002405E00C48005D3044C6B2601C21
:10376000C4B2AC42F7DB7042074948554FF6FF73CD
:103770006A1C0B48FEF742FF00BFE4E67508002014
:103780004C000020F30700208D070020730000206C
:103790002F0800204D0800206B080020B6610008AB
:1037A0003807002000000208A0000020704770B514
:1037B00004460D462121217420216174002161827B
:1037C000A1820721E18207222946204600F06EFFF0
:1037D00070BD000010B52D480068401C2B490860E2
:1037E00014280FD301202A4908702A4908702A4951
:1037F00008702A4908702A4908702A490870002070
:103800002249086028480068401C27490860C828E9
:103810000DD30120254908702549087025490870F5
:10382000254908702549087000201F490860244870
:103830000068401C22490860B0F57A7F07D3012058
:10384000204908702049087000201D4908601F4861
:103850000068401C1D4908601D480068401C1C4948
:1038600008600A2805D301201A4908700020184969
:1038700008601948006820B117480068401E1649C2
:103880000860FDF70BFFFEF760FB10BD280000206D
:103890000C0000200E0000200D0000200F00002072
:1038A00010000020110000202C0000201400002037
:1038B000150000201600002017000020180000202E
:1038C0003000002012000020240000201C000020F6
:1038D00020000020250000200800002010B592B034
:1038E00000BF002000902C48006840F080502A491A
:1038F00008600846006800F08050009000BF00BFDC
:1039000000BF002000902548006820F4404040F4AB
:103910000040224908600846006800F440400090DA
:1039200000BF00BF01200690079002200C904105C7
:103930000D9104210E9148210F9102211091032134
:10394000119106A8FEF704F908B1FCF7CBFF0F2090
:1039500001900220029080200390400104900020FA
:103960000590012101A8FDF77FFF08B1FCF7BAFF20
:10397000FEF762F84FF47A71B0FBF1F42046FEF7DF
:10398000CAFA0420FEF7B2FA00221146501EFDF7D3
:10399000F7FE12B010BD0000403802400070004039
:1039A0001448006840F4700012490860124800682A
:1039B00040F001001049086000200F4908310860FC
:1039C0000D4800680D4908400B4908600C48091D66
:1039D0000860081F006820F48020091F086000208C
:1039E00005490C3108604FF00060024980390860D9
:1039F0007047000088ED00E000380240FFFFF6FE4F
:103A00001030002410B5FDF751FEFFF767FFFFF7F8
:103A100043FCFFF7E9FCFFF73FFD40F6FF71022092
:103A200002F034FAFFF714FD012220210448FDF7CB
:103A3000F1FA012211030348FDF7ECFA10BD000072
:103A4000000002400004024010B50248FEF79BFB54
:103A500010BD0000A409002000220268234B9842F8
:103A60000BD0B0F1804F08D0214B984205D0214BAC
:103A7000984202D0204B984201D1012300E000235C
:103A80001BB122F070024B681A43184B984214D0B5
:103A9000B0F1804F11D0164B98420ED0154B984282
:103AA0000BD0154B984208D0144B984205D0144BBC
:103AB000984202D0134B984201D1012300E0002329
:103AC0001BB122F44072CB681A4302608B68C36258
:103AD0000B688362054B984201D1012300E000236B
:103AE0000BB10B6903630123436170470000014080
:103AF0000004004000080040000C0040004001406D
:103B0000004401400048014030B50C460021816866
:103B100021F47F4142EA032525432943816030BDDA
:103B20000A460021816821F0700142F00703194321
:103B30008160704730B50B46144600210022026AAE
:103B4000056A25F001050562816921F0F00141EA6D
:103B5000041122F00A021A438161026230BD30B5BD
:103B60000B46144600210022056A25F01005056267
:103B70008169026A21F4704141EA043122F0A00215
:103B800042EA03128161026230BD70B50546AC6B3A
:103B90000020E085E0842046FEF7C4FB70BD01688C
:103BA000C96821F490710268D1600168496921F007
:103BB000010102685161202180F83A10704710B568
:103BC00004462068C06820F040002168C8602020BA
:103BD00084F839002046FEF77CFD002010BD70B54A
:103BE000044694F83A00222844D1A068B0F5805FDA
:103BF00013D1A56A206940B920684068C0F3080065
:103C00002880A06A801CA06219E020684068C0B2C9
:103C10002880A06A401CA06211E0206938B92068A1
:103C20004068C1B2A26A501CA062117007E020680F
:103C3000406800F07F01A26A501CA0621170E08D04
:103C4000401E80B2E08598B92068C06820F490706A
:103C50002168C8602068406920F00100216848613F
:103C6000202084F83A002046FEF7A6FC002070BD14
:103C70000020FCE70220FAE72DE9F0410446002588
:103C80002068056925F44055E06805432068056112
:103C90002068C56849F20C6085432169A068084323
:103CA00061690843E169084305432068C5602068ED
:103CB000456925F44075A069054320684561E069C0
:103CC000B0F5004F7ED1C4492068884203D0C34973
:103CD000206888425DD1FDF7CBFE00EBC00101EB0F
:103CE000001061684900B0FBF1F06421B0FBF1F015
:103CF0000601FDF7BDFE00EBC00101EB001061689D
:103D00004900B0FBF1F7FDF7B3FE00EBC00101EB9A
:103D1000001061684900B0FBF1F06421B0FBF1F0E4
:103D200000EBC00101EB0010A7EB8000322101EB9A
:103D3000C0006421B0FBF1F000F0F80006EB400693
:103D4000FDF796FE00EBC00101EB00106168490031
:103D5000B0FBF1F7FDF78CFE00EBC00101EB0010AA
:103D600061684900B0FBF1F06421B0FBF1F000EBB9
:103D7000C00101EB0010A7EB8000322101EBC00075
:103D80006421B0FBF1F000F0070030442168886046
:103D900020E1FDF757FE00EBC00101EB0010616868
:103DA0004900B0FBF1F06421B0FBF1F00601FDF732
:103DB00049FE00EBC00101EB001061684900B0FB57
:103DC000F1F700E045E0FDF73DFE00EBC00101EB3F
:103DD000001061684900B0FBF1F06421B0FBF1F024
:103DE00000EBC00101EB0010A7EB8000322101EBDA
:103DF000C0006421B0FBF1F000F0F80006EB4006D3
:103E0000FDF720FE00EBC00101EB001061684900E6
:103E1000B0FBF1F7FDF716FE00EBC00101EB00105F
:103E200061684900B0FBF1F06421B0FBF1F000EBF8
:103E3000C00101EB0010A7EB8000322101EBC000B4
:103E40006421B0FBF1F000F0070030442168886085
:103E5000C0E061492068884203D0604920688842F8
:103E60005CD1FDF705FE00EBC00101EB00106168BD
:103E70008900B0FBF1F6FDF7FBFD00EBC00101EBA3
:103E8000001061688900B0FBF1F06421B0FBF1F033
:103E900000EBC00101EB0010A6EB8000322101EB2A
:103EA00000106421B0FBF1F000F0F006FDF7E0FD3A
:103EB00000EBC00101EB001061688900B0FBF1F07C
:103EC0006421B0FBF1F006EB0016FDF7D1FD00EB2D
:103ED000C00101EB001061688900B0FBF1F7FDF74C
:103EE000C7FD00EBC00101EB001061688900B0FB69
:103EF000F1F06421B0FBF1F000EBC00101EB001028
:103F0000A7EB8000322101EB00106421B0FBF1F03F
:103F100000F00F003044216888605BE0FDF792FDFF
:103F200000EBC00101EB001061688900B0FBF1F605
:103F3000FDF788FD00EBC00101EB0010616889000E
:103F4000B0FBF1F06421B0FBF1F000EBC00101EB3C
:103F50000010A6EB8000322101EB00106421B0FBC1
:103F6000F1F000F0F006FDF76DFD00EBC00101EB94
:103F7000001061688900B0FBF1F06421B0FBF1F042
:103F800006EB0016FDF75EFD00EBC00101EB001033
:103F900061688900B0FBF1F7FDF754FD00EBC0014B
:103FA00001EB001061688900B0FBF1F06421B0FB07
:103FB000F1F000EBC00101EB0010A7EB8000322113
:103FC00001EB00106421B0FBF1F000F00F00304471
:103FD00021688860BDE8F0810010014000140140B4
:103FE000014691F8390021282CD18868B0F5805F0E
:103FF0000FD10A6A1088C0F308000B68586008697E
:1040000018B9086A801C086209E0086A401C086246
:1040100005E00B6A581C086218780B685860C88C59
:10402000401E80B2C88458B90868C06820F080007B
:104030000B68D8600868C06840F040000B68D86022
:10404000002070470220FCE72DE9F04104460D46B0
:1040500017469846069E21E0701CF8B12EB1FCF779
:10406000DFFFA0EB0800B04218D92068C06820F438
:10407000D0702168C8602068406920F00100216884
:104080004861202084F8390084F83A0000BF0020FD
:1040900084F8380000BF0320BDE8F0812068006884
:1040A0002840A84201D1012000E00020B842D3D02E
:1040B0000020F1E710B50248FEF736F910BD000008
:1040C0003807002070B506460D46304600F0A7FBC5
:1040D00004464FF6FF70844205D045F4004106F5D2
:1040E0005F7040F82410E0B270BD2DE9FF41074633
:1040F0000C4615461E460020012102230A468DE883
:10410000320003903146384600F09EFE002004B095
:10411000BDE8F0812DE9FF4104460D4617461E46D5
:10412000DDF8288094F81D0308B14FF00008012045
:104130000223002231468DE8A101204600F084FED2
:10414000002004B0BDE8F08170B504460225D4F823
:104150007403C66906F140012046FCF72FFD0546B1
:1041600025B902212046D4F8C4239047284670BDC3
:1041700070B50546D5F87403C469207848B1217834
:10418000284600F061FA2178284600F014FB002050
:104190002070207B48B1217B284600F055FA217B16
:1041A000284600F008FB00202073607B48B1617B4B
:1041B000284600F049FA617B284600F0FCFA00210D
:1041C0006173D5F87403C06940B1D5F87413C86938
:1041D000FCF783F80020D5F87413C861002070BD87
:1041E000FEB505460227FF2302221146284600F0AD
:1041F000BAFA0646FF2E6ED03146284601F012F874
:104200005020FCF73BF8D5F87413C861D5F8740357
:10421000C46906EB860000EBC60105F54F7000EBA4
:104220004100007B00F0800098B106EB860000EBB7
:10423000C60105F54F7000EB4100007B607006EB96
:10424000860000EBC60105F54F7000EB4100C08908
:10425000608161782846FFF735FF2070608903226E
:1042600095F81D13CDE90012029095F81C33627881
:104270002178284600F0FFFD21780022284600F032
:10428000B6FD00231A460A21284600F06CFA0646BD
:10429000FF2EB0D006EB860000EBC60105F54F708F
:1042A00000EB4100007B00F08000A8B106EB860027
:1042B00000EBC60105F54F7000EB4100017BE17397
:1042C00006EB860000EBC60105F54F7000EB4100E0
:1042D000C189618314E07CE006EB860000EBC60137
:1042E00005F54F7000EB4100017BA17306EB8600E2
:1042F00000EBC60105F54F7000EB4100C189218339
:1043000006EB860000EBC60105F54F7000EB41009F
:10431000007D00F08000A0B106EB860000EBC60136
:1043200005F54F7000EB4100017DE17306EB86005F
:1043300000EBC60105F54F7000EB4100C18A6183B7
:1043400013E006EB860000EBC60105F54F7000EBAD
:104350004100017DA17306EB860000EBC60105F567
:104360004F7000EB4100C18A2183A17B2846FFF7F3
:10437000A9FE6073E17B2846FFF7A4FE2073208B23
:10438000022295F81D13CDE90012029095F81C3316
:10439000A27B617B284600F06EFD608B022295F8BF
:1043A0001D13CDE90012029095F81C33E27B217BAE
:1043B000284600F060FD002084F84C00617B00225C
:1043C000284600F014FD217B0022284600F00FFD56
:1043D00000273846FEBD70472DE9F041064601270B
:1043E0000025D6F87403C46994F84C00052852D20D
:1043F000DFE800F003051540470000274CE0304699
:10440000A16CFFF7D4F905461DB9022084F84C00D1
:1044100004E0012D02D0042084F84C003CE004F1BB
:1044200040013046FCF7CAFB0546EDB9002084F890
:104430004C004420005DA16C0979884219D14620C6
:10444000005DA16C8979884213D14520005DA16C83
:10445000497988420DD1A16C206C0968884208D145
:104460003046FFF7B8FF04E0012D02D0042084F8A5
:104470004C0011E03046FCF756F93046FCF714F9D1
:104480000AE00021304600F0E8F8054615B90020A2
:1044900084F84C0000E000BF00BF3846BDE8F08162
:1044A00030B503460C460120D3F87453E96991F8FE
:1044B0004C501DB191F84C50032D07D10C628A620B
:1044C000032581F84C5081F84E50002030BD00008B
:1044D00070B506460024002505E03D48405D2044B7
:1044E000C4B2681CC5B23A484078C01CA842F4DC8B
:1044F000002C46D14FF480513648FCF787FD3448F4
:1045000080780B280DD101203349087000203349F1
:1045100008702F484078C21C2D493148FBF704FF32
:1045200054E02B4880780E2807D129484078C21CD7
:1045300027492C48FBF7F8FE48E0254880781F28DB
:1045400007D123484078C21C21492748FBF7ECFEDD
:104550003CE01F488078FC2807D11D484078C21CE9
:104560001B492248FBF7E0FE30E0194880780C2810
:104570002CD117484078C21C15491D48FBF7D4FEC2
:1045800024E01CB3124880780B2803D10020144982
:1045900048701AE00E4880780E2816D00C488078B3
:1045A0001F2803D10020104948700EE00848807889
:1045B000FC2803D100200D49487006E004488078AB
:1045C0000C2802D100200A49487070BD00BFFCE7EA
:1045D00078070020000402407300002074000020CF
:1045E000F3070020110800202F0800204D080020AC
:1045F0006B08002001460020704702460B46D2F8A7
:104600007403C16910780A2803D1012081F84C0095
:104610008B640020704730B503460C460120D3F868
:104620007453E96991F84C501DB191F84C50032D29
:1046300008D1CC614A62032581F84C50012581F8EC
:104640004D50002030BD704770B504460D462946D8
:10465000204600F0FDFA002070BD70B504460D46FE
:10466000A078012807D10221217401216174002161
:104670006182A582E18200221146204600F016F8F0
:1046800070BD2DE9FF4107460C4615461E46002029
:10469000012103460A468DE8320003903146384630
:1046A00000F0D2FB002004B0BDE8F0812DE9F0411C
:1046B00004460E4617460125A078012802D002289C
:1046C00019D107E0A660A781012121760220A07000
:1046D000012511E0204600F008F905462DB901201A
:1046E000A07000212176002504E0022D02D10120D6
:1046F000A07000BF00E000BF00BF2846BDE8F08109
:104700002DE9FF4104460D4617461E46DDF8288078
:1047100094F81D0308B14FF00008012000231A4649
:1047200031468DE8A101204600F08EFB002004B048
:10473000BDE8F0817FB506460C46154600200821ED
:10474000CDE9000403460246CDE902102946304671
:1047500000F07AFB002004B070BD10B5044620467E
:10476000FCF79BFA10BDF0B506460C461546002234
:10477000002106F232371AE002EB820000EBC20C95
:1047800007F10A0000EB4C014879A04201D0FF2C50
:104790000BD18879A84201D0FF2D06D1C879984263
:1047A00001D0FF2B01D1D0B2F0BD501C42B2022A81
:1047B000E2DBFF20F8E702460B2909DA02F55F7019
:1047C00030F82100C0F30E0302F55F7040F821308D
:1047D000002070472DE9F04104460E4615461F465D
:1047E000DDF81880A078012812D146F080012174EC
:1047F00006216174658205F47F40B0F5407F03D1E6
:1048000040F20941A18201E00021A182A4F81680B2
:10481000424639462046FFF749FFBDE8F08102468F
:10482000002100BF0AE002F55F7030F8210000F4BB
:10483000004008B908467047481CC1B20B29F2DB9A
:104840004FF6FF70F7E710B502460B881478234443
:104850000B801378981810BDF8B504460D4604F186
:104860001C0633464FF40072002120460095FFF7E6
:10487000B1FF071E05D12A46314604F2323000F05E
:104880000FFB3846F8BDF8B504460D4604F58E73A7
:104890004FF48072002120460095FFF79BFF061E13
:1048A00006D12A4604F58E7104F5487000F065FBC8
:1048B0003046F8BD2DE9F84304460E4617461D461E
:1048C00046F4407204F58E73002120460095FFF7F0
:1048D00081FFB0F1000805D12A46394604F58E70F3
:1048E00000F09AFB4046BDE8F883F8B5044601277E
:1048F0000025207E0C2872D2DFE800F0D2060F30AF
:104900003C4E5C788498A6BB627904F11001204685
:10491000FFF710FF02212176C3E06179204600F005
:1049200005FA0546012D14D1207C00F08006E08AAE
:1049300038B1802E02D1032121760EE005212176A7
:104940000BE0802E02D10921217606E00721217695
:1049500003E0042D01D10B212176A2E0D4F8B803A5
:10496000E0812379A2892046A168FFF78AFE04210D
:10497000217696E02179204600F0D8F90546012DF0
:1049800001D109212176052D01D1032703E0042D52
:1049900001D10B21217684E0012000906379A28966
:1049A0002046A168FFF7ACFED4F8B803E0810621E9
:1049B000217676E06179204600F0B8F90546012DB0
:1049C00002D10721217610E0052D03D10C2121769B
:1049D00003270AE0022D03D10521217605E05FE0DF
:1049E000042D02D10B21217602275AE023790022DF
:1049F00011462046FFF745FED4F8B803E0810821B0
:104A000021764EE02179204600F090F90546012DEF
:104A100003D10D212176002707E0042D02D10B21BF
:104A2000217602E0052D00D103273AE00120009015
:104A30006379002211462046FFF762FED4F8B803DE
:104A4000E0810A2121762CE06179204600F06EF9A0
:104A50000546012D03D100270D21217608E0022D06
:104A600002D10921217603E0042D01D10B21217609
:104A700017E0607E401CC1B26176022907DC204647
:104A800000F0DAF9012121760120A07007E006216B
:104A90002046D4F8C423904700216176022700E025
:104AA00000BF00BF3846F8BD3EB50446012560781A
:104AB00008287CD2DFE800F0042A325B636C7F9127
:104AC00008212046FFF7DFFEF8B994F82713A171FB
:104AD00001206070A079002294F81D13CDE9001226
:104AE000029094F81C3321798022204600F0C3F90B
:104AF000A079002294F81D13CDE90012029094F8D9
:104B00001C336179204600F0B6F977E01221204687
:104B1000FFF7B9FE08B9022060706FE0012120465E
:104B200000F08BFB10BB0220FFF717FE012184F879
:104B30001C1303206070A079002294F81D13CDE9A6
:104B40000012029094F81C3321798022204600F054
:104B500092F9A079002294F81D13CDE90012029079
:104B600094F81C336179204600F085F946E009216C
:104B70002046FFF771FE08B9042060703EE0B4F8EB
:104B800034132046FFF768FE08B90520607035E051
:104B900094F82E0360B194F82E13FF2304F58E725F
:104BA0002046FFF787FE28B90620607002E024E067
:104BB0000620607022E094F82F0358B194F82F1368
:104BC000FF2304F58E722046FFF774FE20B90720FC
:104BD000607001E00720607010E094F8300350B17D
:104BE00094F83013FF2304F58E722046FFF762FE1F
:104BF00010B9002500E0002500E000BF00BF2846F6
:104C00003EBD10B5044620780A2807D1D4F87403B5
:104C100020B1D4F8740381692046884710BD70B56F
:104C200004460D4616460CB9022070BD84F8BC63DC
:104C30000020C4F87403C4F878032046FBF7C6FDCF
:104C40000DB1C4F8C453204600F084F80020ECE70E
:104C500070B504460D462946D4F8C003FCF713FA94
:104C6000002070BD10B50446207858B9012184F8A1
:104C70001E13D4F8C40350B104212046D4F8C42331
:104C8000904704E02078012801D102202070002004
:104C900010BD10B50446204600F0CEF8217920461C
:104CA000FFF789FD61792046FFF785FD002184F833
:104CB0001E13D4F8C40320B105212046D4F8C42320
:104CC0009047204600F0B0F803202070002010BD6F
:104CD00070B504460D4694F8BC03012800D100BF0E
:104CE000C820FBF7DAFF002070BD70B504460D4602
:104CF0002946D4F8C003FCF7BDF970BD70B5044671
:104D00000125D4F8C003FCF7A5F920B1012804D08F
:104D1000022806D103E0002505E0012503E0022575
:104D200001E0012500BF00BF284670BD70B50446F4
:104D30000D462946D4F8C003FCF792F970BD10B5B2
:104D40000446D4F8B803401CC4F8B8032046FFF763
:104D500058FF10BD70B5044694F8BC03012820D15B
:104D60001148C0F89442C4F8C0034FF0A0400E4967
:104D7000086008210C4881600221C16000210161A6
:104D8000022181610021C161FCF7DCFB08B1FBF766
:104D9000A9FD0548FCF758F905462946204600F0CC
:104DA00023F8002070BD0000D80000202DE9FE4F40
:104DB00004460D4616461F46DDE90D9ADDF83080A3
:104DC0008DE800073B4632462946D4F8C003FCF77D
:104DD00074F90020BDE8FE8F10B50446D4F8C00376
:104DE000FCF71CFC002010BDC0F8B813704730B5AC
:104DF0000446D4F8C03301EB810503F1380000EB21
:104E0000C500C07838B101EB810503F1380000EB33
:104E1000C500027606E001EB810503F1380000EBE6
:104E2000C5004276002030BD10B50446D4F8C0035A
:104E3000FCF701FC002010BD10B50446D4F8C003F7
:104E4000FCF714FC002010BD2DE9FF5F04460D4661
:104E500016461F46DDE910ABDDE90E898DE8000F2F
:104E60003B4632462946D4F8C003FCF784F90020BB
:104E700004B0BDE8F09F2DE9FE4F04460D461646EE
:104E80001F46DDE90D9ADDF830803B463246294663
:104E900020468DE80007FFF789FF0020BDE8FE8F60
:104EA0002DE9F84F04460E46934635464FF000086C
:104EB000C14600BF3078207070786070B178F078AB
:104EC00001EB002060803079207170796071B079D9
:104ED000A071F079E071307A2072BBF1090F4ADDE0
:104EE0000920009000273EE069462846FFF7ABFC0A
:104EF00005466878042836D108EB880000EBC80125
:104F000004F10A0000EB41072946384600F071F829
:104F10004FF00009CA461AE069462846FFF793FC9D
:104F200005466878052812D108EB880000EBC80117
:104F300004F10A0000EB41000A3000EBC90A2946DF
:104F4000504600F046F809F101004FFA80F938792F
:104F5000484504DD6088BDF800108842DCDC08F1BB
:104F600001004FFA80F8B8F1020F04DA6088BDF84A
:104F700000108842B8DCBDE8F88F10B50B780370DC
:104F80004B7843708C78CB7804EB032343800B7908
:104F900003714B7943718B798371CB79C371082A83
:104FA00016DD0C7A4B7A04EB032303818C7ACB7ADF
:104FB00004EB032343810C7B4B7B04EB03238381B2
:104FC0008B7B8373CB7BC3730B7C03744B7C4374ED
:104FD00010BD0A7802704A7842708A788270CA7866
:104FE000C2700B794A7903EB022282808A7982713E
:104FF00070470A7802704A7842708A788270CA785C
:10500000C2700A7902714A7942718A798271CA79C9
:10501000C2710A7A0272704730B513464578032D83
:1050200014D10578AD1E9D4202DC0578AD1E00E06E
:105030001D46ACB2801C002204E0855C0D70491C4A
:10504000951CAAB2A242F8DB00250D7030BD7FB5D9
:10505000044602200390002520780D2872D2DFE854
:1050600000F0071314B7C6449C556069AEC6C7006C
:1050700094F81E0338B101202070C820FFF76DFBA3
:105080002046FFF7A9FEB4E0B3E06420FFF765FB1C
:105090002046FFF733FE84F81D0305202070002111
:1050A0002046FFF70FF8607180212046FFF70AF8CD
:1050B0002071A079002294F81D13CDE9001202900E
:1050C00094F81C33217980222046FFF7D4FEA07982
:1050D000002294F81D13CDE90012029094F81C33BD
:1050E00061792046FFF7C7FE83E02046FFF7DCFC2E
:1050F00058B9002184F81F1394F83103012802D114
:105100000820207001E00720207072E0D4F8C4036A
:1051100030B101212046D4F8C423904708202070E4
:1051200067E094F83713204600F09BF808B909208F
:1051300020705EE0D4F8780340B30020C4F8740314
:10514000002511E053E004F55C7050F8250001796A
:1051500094F84103814205D104F55C7050F82500B4
:10516000C4F87403681CC5B2012DECDBD4F87403D9
:1051700080B1D4F8740381682046884738B9062086
:10518000207003212046D4F8C423904704E00C206B
:10519000207001E00C2020702BE0D4F8740358B18B
:1051A000D4F8740301692046884703909DF80C00E9
:1051B00020B90A20207001E00C20207019E0D4F8FA
:1051C000740320B1D4F8740341692046884710E085
:1051D0002046FBF7FBFAD4F8740338B1D4F8740313
:1051E000C168204688470020C4F8740301E000BF6E
:1051F00000BF00BF002004B070BD10B50246002003
:1052000071B1D2F878334BB9D2F87843631CC2F845
:10521000783302F55C7343F8241002E0022000E0CA
:10522000022010BD0246002092F836338B4202DD88
:1052300082F81F1300E00220704770B504460D4647
:10524000A078012807D100212174052161746582AD
:105250000021A182E182002211462046FFF726FAB2
:1052600070BD70B504460D46A078012807D1002115
:1052700021740921617465820021A182E1820022EA
:1052800011462046FFF712FA70BD10B504462046BD
:10529000FFF7CAFD01212046FFF71AFD002010BDCF
:1052A000012906D0022909D004290BD005290DD1E6
:1052B00000E00CE00322074B1A7008E00222054BC5
:1052C0001A7004E00122034B1A7000E000BF00BF17
:1052D00070470000340000200FB410B50446089851
:1052E000012816D1A06B20F48030A063E068134938
:1052F0000840E060E06820F44010E0600F9801286A
:1053000003D1E06840F48010E060204600F018F817
:1053100009E0E06840F04000E060204600F010F84E
:105320004FF48030A0630698012803D1A06840F0B4
:105330002000A060002010BC5DF814FBBFFFBDFF83
:105340000146002200BF501C02460F4B984201D973
:1053500003207047086900F000400028F3D00022C5
:10536000086940F00100086100BF501C0246064B6E
:10537000984201D90320ECE7086900F001000028F9
:10538000F3D100BFE5E70000400D03000146886847
:1053900020F00100886000207047000030B5024610
:1053A000012400230C4800EAC44040F0004502F507
:1053B000A06000EB4110056102F5A06000EB411018
:1053C000036823F0804343F0004302F5A06000EB44
:1053D00041100360002030BD0000F81F08B50246F0
:1053E000D2F840040090009820F02E000090009821
:1053F00000F4805030B9012904D1009840F4805065
:10540000C2F84004009800F48050B0F5805F05D1E8
:1054100021B9009820F48050C2F84004002008BD53
:105420000146886840F00100886000207047000055
:10543000014600221020086100BF501C0246064BA6
:10544000984201D903207047086900F01000102825
:10545000F3D00020F7E70000400D030010B502462E
:105460000023202040EA8110106100BF581C034631
:10547000054CA04201D9032010BD106900F02000A6
:105480002028F3D00020F7E7400D030001464FF439
:105490008160405880B2704708B50146D1F8400499
:1054A00000900098C0F3414008BD0146486900F0F3
:1054B0000100704710B50246002302F5A06000EB22
:1054C00041100068C0F3814040B102F5A06000EBDC
:1054D00041100068C0F38140022846D102F5A06067
:1054E00000EB4110006840F0804402F5A06000EB42
:1054F00041100460D06A00F47F0048BB02F5A06050
:1055000000EB4110006820F0004402F5A06000EBC1
:105510004110046002F5A06000EB4110006840F00B
:10552000004402F5A06000EB4110046000BF581C6D
:105530000346B0F57A7F00D909E002F5A06000EBE0
:105540004110006800F00040B0F1004FEFD053E090
:1055500002F5A06000EB4110006840F0004402F545
:10556000A06000EB4110046046E002F5A06000EB93
:105570004110006840F0804402F5A06000EB41104B
:1055800004604FF48260805880B248BB02F5A0608E
:1055900000EB4110006820F0004402F5A06000EB31
:1055A0004110046002F5A06000EB4110006840F07B
:1055B000004402F5A06000EB4110046000BF581CDD
:1055C0000346B0F57A7F00D909E002F5A06000EB50
:1055D0004110006800F00040B0F1004FEFD00BE048
:1055E00002F5A06000EB4110006840F0004402F5B5
:1055F000A06000EB41100460002010BD2DE9F041D7
:105600000446DDE90757069E4FF0FF3C04F5A06015
:1056100000EB4110C0F808C035B1012D48D0022D73
:1056200003D0032D5DD12AE000BF40F29D4C04F56C
:10563000A06000EB4110C0F80CC002F0800068B11F
:1056400004F5A06000EB4110C06840F4807C04F5D4
:10565000A06000EB4110C0F80CC00FE0B4F1A04F07
:105660000CD004F5A06000EB4110C06840F0600C65
:1056700004F5A06000EB4110C0F80CC031E040F22E
:105680009D6C04F5A06000EB4110C0F80CC002F066
:10569000800060B104F5A06000EB4110C06840F4E8
:1056A000807C04F5A06000EB4110C0F80CC018E04D
:1056B00040F2252C04F5A06000EB4110C0F80CC0AE
:1056C00002F0800060B104F5A06000EB4110C068FA
:1056D00040F4C07C04F5A06000EB4110C0F80CC0A1
:1056E00000BF00BF4FF4836000594FF0010C0CFA6B
:1056F00001FC40EA0C00C4F81804A06940F00070F6
:10570000A0614FF0FE5000EA83504FF4F04C0CEAD9
:10571000C22C40EA0C00C2F3C01C4FF4004808EA57
:10572000CC3C40EA0C00022E02D14FF0010C01E00B
:105730004FF0000C4FF4003808EA4C4C40EA0C00E3
:105740004FF4402C0CEA854C40EA0C00C7F30A0CDD
:1057500040EA0C0004F5A06C0CEB411CCCF80000F6
:10576000032D0CD104F5A06000EB4110006840F05F
:10577000005C04F5A06000EB4110C0F800C0002000
:10578000BDE8F081014640F21440405880B27047B5
:105790002DE9F84F05460C4616464FF0000BDA4649
:1057A00000274FF48078B946B5F1A04F1CD020797E
:1057B000D0B94EB96079012806D161782846FFF743
:1057C000EDFD0020BDE8F88F012E0DD1607805F5C4
:1057D000A06101EB4010C06820F06002607801EB2E
:1057E0004010C26000206071206968B12189206981
:1057F0000844401EB0FBF1F087B2474505DD47463F
:1058000020897843206100E00127E07810B12089E9
:10581000784320612069C0F312003E4901EAC74184
:105820000843A17A4FF0C04202EA4171084361780F
:1058300005F5A06202EB4111086136B1607805F50B
:10584000A06101EB4010E26842614FF48160405971
:1058500000F0010080F0010B607805F5A06101EB1C
:105860004010006820F00052607801EB40100260A8
:10587000607801EB4010006840EA4B72607801EB01
:1058800040100260607801EB4010D0F8009029F0E1
:10589000804949F00049607801EB4010C0F8009061
:1058A000AEBBE07898BB206988B3E07930B10128BD
:1058B00013D0022803D003281ED10DE000BF2069B9
:1058C000C01CC0F38F0AE86A80B2504503D2A869B1
:1058D00040F02000A86110E000BF2069C01CC0F3A8
:1058E0008F0A4FF48260405980B2504503D2A869B4
:1058F00040F08060A86100E000BF00BF0020009081
:10590000208A83B262782846E16800F05DFA0020C0
:1059100058E700000000F81F10B5044669480078F9
:10592000012878D168480078401C6749087008460B
:105930000078042803DD0020087064490870002006
:10594000604908706248007810284BD111206149E5
:1059500008700E20487088700020C87004205E49CE
:10596000087009E000205B495B4A127888545A4865
:105970000078401C58490870574800781028F1DB1F
:10598000002056490870544908700DE051485249AA
:105990000978405C514909780844504908704E48DC
:1059A0000078401C4C4908704A484078801C4A499D
:1059B00009788842EADC494800784042C1B245484B
:1059C0004078801C434A1154112242492046FEF778
:1059D00022FE092242492046FEF762FDFF203C4993
:1059E000087010BD3F480078022815D111203949B0
:1059F0000870022048701F2088700020C870CE20D8
:105A0000087105222046FEF706FE1522344920467D
:105A1000FEF746FD4AE053E032480078052814D1ED
:105A200011202C49087002204870FC20887000204A
:105A3000C870F120087105222046FEF7ECFD152202
:105A400027492046FEF72CFD30E0264800780A283A
:105A500014D111201F490870022048700C20887052
:105A60000020C870E120087105222046FEF7D3FD12
:105A700015221B492046FEF713FD17E01948007850
:105A80003C2813DC112013490870022048700B20B9
:105A900088700020C870E220087105222046FEF7B9
:105AA000BAFD15220E492046FEF7FAFC0D48007893
:105AB000401CC0B20B4908701E2801DB0020087092
:105AC00000BF8EE712000020740000207300002049
:105AD0006F000020A20700207E0000207D00002033
